{"abi":[{"type":"constructor","inputs":[],"stateMutability":"nonpayable"},{"type":"function","name":"claimTypes","inputs":[{"name":"","type":"uint256","internalType":"uint256"}],"outputs":[{"name":"","type":"address","internalType":"contract IVerifyClaim"}],"stateMutability":"view"},{"type":"function","name":"claims","inputs":[{"name":"","type":"address","internalType":"address"},{"name":"","type":"uint256","internalType":"uint256"}],"outputs":[{"name":"","type":"uint256","internalType":"uint256"}],"stateMutability":"view"},{"type":"function","name":"owner","inputs":[],"outputs":[{"name":"","type":"address","internalType":"address"}],"stateMutability":"view"},{"type":"function","name":"renounceOwnership","inputs":[],"outputs":[],"stateMutability":"nonpayable"},{"type":"function","name":"setTrustHash","inputs":[{"name":"ClaimType","type":"uint256","internalType":"uint256"},{"name":"trustHash","type":"bytes32","internalType":"bytes32"}],"outputs":[],"stateMutability":"nonpayable"},{"type":"function","name":"setType","inputs":[{"name":"ClaimType","type":"uint256","internalType":"uint256"},{"name":"prover","type":"address","internalType":"address"}],"outputs":[],"stateMutability":"nonpayable"},{"type":"function","name":"submitClaim","inputs":[{"name":"proof","type":"bytes","internalType":"bytes"},{"name":"verifiedForDate","type":"uint256","internalType":"uint256"},{"name":"strength","type":"uint256","internalType":"uint256"},{"name":"ClaimType","type":"uint256","internalType":"uint256"},{"name":"morePublicInputs","type":"bytes32[]","internalType":"bytes32[]"}],"outputs":[],"stateMutability":"nonpayable"},{"type":"function","name":"transferOwnership","inputs":[{"name":"newOwner","type":"address","internalType":"address"}],"outputs":[],"stateMutability":"nonpayable"},{"type":"function","name":"trustHashes","inputs":[{"name":"","type":"uint256","internalType":"uint256"}],"outputs":[{"name":"","type":"bytes32","internalType":"bytes32"}],"stateMutability":"view"},{"type":"event","name":"OwnershipTransferred","inputs":[{"name":"previousOwner","type":"address","indexed":true,"internalType":"address"},{"name":"newOwner","type":"address","indexed":true,"internalType":"address"}],"anonymous":false},{"type":"error","name":"OwnableInvalidOwner","inputs":[{"name":"owner","type":"address","internalType":"address"}]},{"type":"error","name":"OwnableUnauthorizedAccount","inputs":[{"name":"account","type":"address","internalType":"address"}]}],"bytecode":{"object":"0x6080604052348015600f57600080fd5b503380603557604051631e4fbdf760e01b81526000600482015260240160405180910390fd5b603c816041565b506091565b600080546001600160a01b038381166001600160a01b0319831681178455604051919092169283917f8be0079c531659141344cd1fd0a4f28419497f9722a3daafe3b4186f6b6457e09190a35050565b61072f806100a06000396000f3fe608060405234801561001057600080fd5b50600436106100935760003560e01c80639011532a116100665780639011532a146100f2578063ab541a8514610120578063ad1f80111461014b578063c1edcdc11461015e578063f2fde38b1461018757600080fd5b80630fa6eb5a146100985780631449fd38146100ad578063715018a6146100c05780638da5cb5b146100c8575b600080fd5b6100ab6100a6366004610472565b61019a565b005b6100ab6100bb36600461052a565b610307565b6100ab610321565b6000546001600160a01b03165b6040516001600160a01b0390911681526020015b60405180910390f35b61011261010036600461054c565b60016020526000908152604090205481565b6040519081526020016100e9565b61011261012e366004610581565b600360209081526000928352604080842090915290825290205481565b6100ab6101593660046105ab565b610335565b6100d561016c36600461054c565b6002602052600090815260409020546001600160a01b031681565b6100ab6101953660046105d7565b61036b565b6000838152600260205260409020546001600160a01b03166101d75760405162461bcd60e51b81526004016101ce906105f9565b60405180910390fd5b6000838152600160205260409020546102025760405162461bcd60e51b81526004016101ce906105f9565b6000838152600260209081526040808320546001909252918290205491516360ed7b3b60e11b81526001600160a01b039091169163c1daf67691610259918b918b9133918c91908c908c908c908c90600401610642565b602060405180830381865afa158015610276573d6000803e3d6000fd5b505050506040513d601f19601f8201168201806040525081019061029a91906106d7565b6102e65760405162461bcd60e51b815260206004820152601e60248201527f54686520636c61696d20636f756c646e2774206265207665726966696564000060448201526064016101ce565b50503360009081526003602090815260408083209383529290522055505050565b61030f6103a9565b60009182526001602052604090912055565b6103296103a9565b61033360006103d6565b565b61033d6103a9565b60009182526002602052604090912080546001600160a01b0319166001600160a01b03909216919091179055565b6103736103a9565b6001600160a01b03811661039d57604051631e4fbdf760e01b8152600060048201526024016101ce565b6103a6816103d6565b50565b6000546001600160a01b031633146103335760405163118cdaa760e01b81523360048201526024016101ce565b600080546001600160a01b038381166001600160a01b0319831681178455604051919092169283917f8be0079c531659141344cd1fd0a4f28419497f9722a3daafe3b4186f6b6457e09190a35050565b60008083601f84011261043857600080fd5b50813567ffffffffffffffff81111561045057600080fd5b6020830191508360208260051b850101111561046b57600080fd5b9250929050565b600080600080600080600060a0888a03121561048d57600080fd5b873567ffffffffffffffff808211156104a557600080fd5b818a0191508a601f8301126104b957600080fd5b8135818111156104c857600080fd5b8b60208285010111156104da57600080fd5b60209283019950975090890135955060408901359450606089013593506080890135908082111561050a57600080fd5b506105178a828b01610426565b989b979a50959850939692959293505050565b6000806040838503121561053d57600080fd5b50508035926020909101359150565b60006020828403121561055e57600080fd5b5035919050565b80356001600160a01b038116811461057c57600080fd5b919050565b6000806040838503121561059457600080fd5b61059d83610565565b946020939093013593505050565b600080604083850312156105be57600080fd5b823591506105ce60208401610565565b90509250929050565b6000602082840312156105e957600080fd5b6105f282610565565b9392505050565b60208082526029908201527f546865207479706520646f65736e2774206861766520612070726f7665722073604082015268195d08199bdc881a5d60ba1b606082015260800190565b60e081528860e082015260006101008a8c828501376000838c018201526001600160a01b038a16602084015260408301899052606083018890526080830187905260a08301869052601f8b01601f19168301838103820160c0850152908101849052610120906001600160fb1b038511156106bc57600080fd5b8460051b80878484013701019b9a5050505050505050505050565b6000602082840312156106e957600080fd5b815180151581146105f257600080fdfea264697066735822122006503331a9483d03f10a28ab2a9d547f202bccfe92e0389710ee444fab65b73c64736f6c63430008190033","linkReferences":{}},"methodIdentifiers":{"claimTypes(uint256)":"c1edcdc1","claims(address,uint256)":"ab541a85","owner()":"8da5cb5b","renounceOwnership()":"715018a6","setTrustHash(uint256,bytes32)":"1449fd38","setType(uint256,address)":"ad1f8011","submitClaim(bytes,uint256,uint256,uint256,bytes32[])":"0fa6eb5a","transferOwnership(address)":"f2fde38b","trustHashes(uint256)":"9011532a"},"id":22}