{"abi":[{"type":"constructor","inputs":[],"stateMutability":"nonpayable"},{"type":"function","name":"claim","inputs":[{"name":"proof","type":"bytes","internalType":"bytes"},{"name":"verifiedForDate","type":"uint256","internalType":"uint256"},{"name":"strength","type":"uint256","internalType":"uint256"},{"name":"ClaimType","type":"uint256","internalType":"uint256"},{"name":"morePublicInputs","type":"bytes32[]","internalType":"bytes32[]"}],"outputs":[],"stateMutability":"nonpayable"},{"type":"function","name":"claimTypes","inputs":[{"name":"","type":"uint256","internalType":"uint256"}],"outputs":[{"name":"","type":"address","internalType":"contract IVerifyClaim"}],"stateMutability":"view"},{"type":"function","name":"claims","inputs":[{"name":"","type":"address","internalType":"address"},{"name":"","type":"uint256","internalType":"uint256"}],"outputs":[{"name":"","type":"uint256","internalType":"uint256"}],"stateMutability":"view"},{"type":"function","name":"owner","inputs":[],"outputs":[{"name":"","type":"address","internalType":"address"}],"stateMutability":"view"},{"type":"function","name":"renounceOwnership","inputs":[],"outputs":[],"stateMutability":"nonpayable"},{"type":"function","name":"setTrustHash","inputs":[{"name":"ClaimType","type":"uint256","internalType":"uint256"},{"name":"trustHash","type":"bytes32","internalType":"bytes32"}],"outputs":[],"stateMutability":"nonpayable"},{"type":"function","name":"setType","inputs":[{"name":"ClaimType","type":"uint256","internalType":"uint256"},{"name":"prover","type":"address","internalType":"address"}],"outputs":[],"stateMutability":"nonpayable"},{"type":"function","name":"transferOwnership","inputs":[{"name":"newOwner","type":"address","internalType":"address"}],"outputs":[],"stateMutability":"nonpayable"},{"type":"function","name":"trustHashes","inputs":[{"name":"","type":"uint256","internalType":"uint256"}],"outputs":[{"name":"","type":"bytes32","internalType":"bytes32"}],"stateMutability":"view"},{"type":"event","name":"OwnershipTransferred","inputs":[{"name":"previousOwner","type":"address","indexed":true,"internalType":"address"},{"name":"newOwner","type":"address","indexed":true,"internalType":"address"}],"anonymous":false},{"type":"error","name":"OwnableInvalidOwner","inputs":[{"name":"owner","type":"address","internalType":"address"}]},{"type":"error","name":"OwnableUnauthorizedAccount","inputs":[{"name":"account","type":"address","internalType":"address"}]}],"bytecode":{"object":"0x6080604052348015600f57600080fd5b503380603557604051631e4fbdf760e01b81526000600482015260240160405180910390fd5b603c816041565b506091565b600080546001600160a01b038381166001600160a01b0319831681178455604051919092169283917f8be0079c531659141344cd1fd0a4f28419497f9722a3daafe3b4186f6b6457e09190a35050565b61072f806100a06000396000f3fe608060405234801561001057600080fd5b50600436106100935760003560e01c8063ab541a8511610066578063ab541a851461010d578063ad1f801114610138578063c1edcdc11461014b578063cadb88c314610174578063f2fde38b1461018757600080fd5b80631449fd3814610098578063715018a6146100ad5780638da5cb5b146100b55780639011532a146100df575b600080fd5b6100ab6100a6366004610426565b61019a565b005b6100ab6101b4565b6000546001600160a01b03165b6040516001600160a01b0390911681526020015b60405180910390f35b6100ff6100ed366004610448565b60016020526000908152604090205481565b6040519081526020016100d6565b6100ff61011b36600461047d565b600360209081526000928352604080842090915290825290205481565b6100ab6101463660046104a7565b6101c8565b6100c2610159366004610448565b6002602052600090815260409020546001600160a01b031681565b6100ab61018236600461051f565b6101fe565b6100ab6101953660046105d7565b61036b565b6101a26103a9565b60009182526001602052604090912055565b6101bc6103a9565b6101c660006103d6565b565b6101d06103a9565b60009182526002602052604090912080546001600160a01b0319166001600160a01b03909216919091179055565b6000838152600260205260409020546001600160a01b031661023b5760405162461bcd60e51b8152600401610232906105f9565b60405180910390fd5b6000838152600160205260409020546102665760405162461bcd60e51b8152600401610232906105f9565b6000838152600260209081526040808320546001909252918290205491516360ed7b3b60e11b81526001600160a01b039091169163c1daf676916102bd918b918b9133918c91908c908c908c908c90600401610642565b602060405180830381865afa1580156102da573d6000803e3d6000fd5b505050506040513d601f19601f820116820180604052508101906102fe91906106d7565b61034a5760405162461bcd60e51b815260206004820152601e60248201527f54686520636c61696d20636f756c646e277420626520766572696669656400006044820152606401610232565b50503360009081526003602090815260408083209383529290522055505050565b6103736103a9565b6001600160a01b03811661039d57604051631e4fbdf760e01b815260006004820152602401610232565b6103a6816103d6565b50565b6000546001600160a01b031633146101c65760405163118cdaa760e01b8152336004820152602401610232565b600080546001600160a01b038381166001600160a01b0319831681178455604051919092169283917f8be0079c531659141344cd1fd0a4f28419497f9722a3daafe3b4186f6b6457e09190a35050565b6000806040838503121561043957600080fd5b50508035926020909101359150565b60006020828403121561045a57600080fd5b5035919050565b80356001600160a01b038116811461047857600080fd5b919050565b6000806040838503121561049057600080fd5b61049983610461565b946020939093013593505050565b600080604083850312156104ba57600080fd5b823591506104ca60208401610461565b90509250929050565b60008083601f8401126104e557600080fd5b50813567ffffffffffffffff8111156104fd57600080fd5b6020830191508360208260051b850101111561051857600080fd5b9250929050565b600080600080600080600060a0888a03121561053a57600080fd5b873567ffffffffffffffff8082111561055257600080fd5b818a0191508a601f83011261056657600080fd5b81358181111561057557600080fd5b8b602082850101111561058757600080fd5b6020928301995097509089013595506040890135945060608901359350608089013590808211156105b757600080fd5b506105c48a828b016104d3565b989b979a50959850939692959293505050565b6000602082840312156105e957600080fd5b6105f282610461565b9392505050565b60208082526029908201527f546865207479706520646f65736e2774206861766520612070726f7665722073604082015268195d08199bdc881a5d60ba1b606082015260800190565b60e081528860e082015260006101008a8c828501376000838c018201526001600160a01b038a16602084015260408301899052606083018890526080830187905260a08301869052601f8b01601f19168301838103820160c0850152908101849052610120906001600160fb1b038511156106bc57600080fd5b8460051b80878484013701019b9a5050505050505050505050565b6000602082840312156106e957600080fd5b815180151581146105f257600080fdfea2646970667358221220e876b1655e497eeb892db31f7c3716a1268e7cfee4c6e3c2a7145b6e7043ca6764736f6c63430008190033","linkReferences":{}},"methodIdentifiers":{"claim(bytes,uint256,uint256,uint256,bytes32[])":"cadb88c3","claimTypes(uint256)":"c1edcdc1","claims(address,uint256)":"ab541a85","owner()":"8da5cb5b","renounceOwnership()":"715018a6","setTrustHash(uint256,bytes32)":"1449fd38","setType(uint256,address)":"ad1f8011","transferOwnership(address)":"f2fde38b","trustHashes(uint256)":"9011532a"},"id":22}