{"abi":[{"type":"constructor","inputs":[{"name":"_verifierContract","type":"address","internalType":"address"}],"stateMutability":"nonpayable"},{"type":"function","name":"verifyClaimAddress","inputs":[{"name":"proof","type":"bytes","internalType":"bytes"},{"name":"claimerAddess","type":"address","internalType":"address"},{"name":"verifiedForDate","type":"uint256","internalType":"uint256"},{"name":"trustKernelHash","type":"bytes32","internalType":"bytes32"},{"name":"strength","type":"uint256","internalType":"uint256"},{"name":"claimType","type":"uint256","internalType":"uint256"},{"name":"morePublicInputs","type":"bytes32[]","internalType":"bytes32[]"}],"outputs":[{"name":"","type":"bool","internalType":"bool"}],"stateMutability":"view"}],"bytecode":{"object":"0x6080604052348015600f57600080fd5b506040516104df3803806104df833981016040819052602c916050565b600080546001600160a01b0319166001600160a01b0392909216919091179055607e565b600060208284031215606157600080fd5b81516001600160a01b0381168114607757600080fd5b9392505050565b6104528061008d6000396000f3fe608060405234801561001057600080fd5b506004361061002b5760003560e01c8063c1daf67614610030575b600080fd5b61004361003e36600461028b565b610057565b604051901515815260200160405180910390f35b60008060028614801561006a5750846002145b156101ac5760408051600380825260808201909252600091602082016060803683370190505090506001600160a01b038a166100a5816101ba565b6100ae816101ba565b6100b7896101ba565b6100c08a6101ba565b80826000815181106100d4576100d4610362565b60200260200101818152505088826001815181106100f4576100f4610362565b6020026020010181815250508960001b8260028151811061011757610117610362565b60200260200101818152505060008054906101000a90046001600160a01b03166001600160a01b031663ea50d0e48e8e856040518463ffffffff1660e01b815260040161016693929190610378565b602060405180830381865afa158015610183573d6000803e3d6000fd5b505050506040513d601f19601f820116820180604052508101906101a791906103f3565b925050505b9a9950505050505050505050565b6101ff816040516024016101d091815260200190565b60408051601f198184030181529190526020810180516001600160e01b03166327b7cf8560e01b179052610202565b50565b80516a636f6e736f6c652e6c6f67602083016000808483855afa5050505050565b80356001600160a01b038116811461023a57600080fd5b919050565b60008083601f84011261025157600080fd5b50813567ffffffffffffffff81111561026957600080fd5b6020830191508360208260051b850101111561028457600080fd5b9250929050565b600080600080600080600080600060e08a8c0312156102a957600080fd5b893567ffffffffffffffff808211156102c157600080fd5b818c0191508c601f8301126102d557600080fd5b8135818111156102e457600080fd5b8d60208285010111156102f657600080fd5b602083019b50809a505061030c60208d01610223565b985060408c0135975060608c0135965060808c0135955060a08c0135945060c08c013591508082111561033e57600080fd5b5061034b8c828d0161023f565b915080935050809150509295985092959850929598565b634e487b7160e01b600052603260045260246000fd5b60408152826040820152828460608301376000606084830101526000601f19601f85011682016060810160206060858403016020860152818651808452608085019150602088019450600093505b808410156103e657845182529382019360019390930192908201906103c6565b5098975050505050505050565b60006020828403121561040557600080fd5b8151801515811461041557600080fd5b939250505056fea2646970667358221220768191ffcdbd98e419d5d197e57697c786399fcd50b0061494ea04999e49529f64736f6c63430008190033","linkReferences":{}},"methodIdentifiers":{"verifyClaimAddress(bytes,address,uint256,bytes32,uint256,uint256,bytes32[])":"c1daf676"},"id":23}